:100000000C945C000C946E000C946E000C946E00CA
:100010000C946E000C946E000C946E000C946E00A8
:100020000C946E000C946E000C946E000C946E0098
:100030000C946E000C946E000C946E000C946E0088
:100040000C94E9030C946E000C946E000C946E00FA
:100050000C946E000C946E000C946E000C946E0068
:100060000C946E000C946E0000000007000201006A
:100070000003040600000000000000000102040864
:100080001020408001020408102001020408102002
:10009000040404040404040402020202020203032E
:1000A0000303030300000000250028002B000000CC
:1000B0000000240027002A0011241FBECFEFD8E043
:1000C000DEBFCDBF21E0A0E0B1E001C01D92A930AC
:1000D000B207E1F70E94B9040C94C6040C94000026
:1000E00061E08DE00C947D0361E08DE00E94B90336
:1000F00060E87EEE86E390E00E94580460E08DE0C8
:100100000E94B90360EE73E984E090E00E94580415
:1001100061E08DE00E94B90360EE73E984E090E055
:100120000E94580460E08DE00E94B90360EA7BEB16
:100130008DE090E00E94580461E08DE00E94B903D8
:1001400060EE73E984E090E00E94580460E08DE086
:100150000E94B90360EE73E984E090E00E945804C5
:1001600061E08DE00E94B90360EE73E984E090E005
:100170000E94580460EC77E289E090E00E94580405
:1001800060E08DE00E94B90360EE73E984E090E0E6
:100190000E94580461E08DE00E94B90360EE73E9AB
:1001A00084E090E00E94580460EC77E289E090E0FF
:1001B0000E94580460E08DE00E94B90360EE73E98C
:1001C00084E090E00E94580461E08DE00E94B90351
:1001D00060EE73E984E090E00E94580460E08DE0F6
:1001E0000E94B90360EA7BEB8DE090E00E94580426
:1001F00061E08DE00E94B90360EE73E984E090E075
:100200000E94580460E08DE00E94B90360EE73E93B
:1002100084E090E00E94580461E08DE00E94B90300
:1002200060EE73E984E090E00E94580460E08DE0A5
:100230000E94B90360EE73E984E090E00E945804E4
:1002400061E08DE00E94B90360EE73E984E090E024
:100250000E94580460EC77E289E090E00E94580424
:1002600060E08DE00E94B90360EE73E984E090E005
:100270000E94580461E08DE00E94B90360EE73E9CA
:1002800084E090E00E94580460EC77E289E090E01E
:100290000E94580460E08DE00E94B90360EE73E9AB
:1002A00084E090E00E94580461E08DE00E94B90370
:1002B00060EE73E984E090E00E94580460E08DE015
:1002C0000E94B90360EA7BEB8DE090E00E94580445
:1002D00061E08DE00E94B90360EE73E984E090E094
:1002E0000E94580460EC77E289E090E00E94580494
:1002F00060E08DE00E94B90360EE73E984E090E075
:100300000E94580461E08DE00E94B90360EE73E939
:1003100084E090E00E94580460E08DE00E94B90300
:1003200060EE73E984E090E00E94580461E08DE0A3
:100330000E94B90360EE73E984E090E00E945804E3
:1003400060E08DE00E94B90360EE73E984E090E024
:100350000E94580461E08DE00E94B90360EE73E9E9
:1003600084E090E00E94580460EC77E289E090E03D
:100370000E94580460E08DE00E94B90360EE73E9CA
:1003800084E090E00E94580461E08DE00E94B9038F
:1003900060EE73E984E090E00E94580460EC77E23C
:1003A00089E090E00E94580460E08DE00E94B9036B
:1003B00060EE73E984E090E00E94580461E08DE013
:1003C0000E94B90360EE73E984E090E00E94580453
:1003D00060E08DE00E94B90360EE73E984E090E094
:1003E0000E94580461E08DE00E94B90360EE73E959
:1003F00084E090E00E94580460E08DE00E94B90320
:1004000060EA7BEB8DE090E00E94580461E08DE0B3
:100410000E94B90360EE73E984E090E00E94580402
:1004200060E08DE00E94B90360EA7BEB8DE090E034
:100430000E94580461E08DE00E94B90360EE73E908
:1004400084E090E00E94580460E08DE00E94B903CF
:1004500060EA7BEB8DE090E00E94580461E08DE063
:100460000E94B90360EE73E984E090E00E945804B2
:1004700060EC77E289E090E00E94580460E08DE053
:100480000E94B90360EE73E984E090E00E94580492
:1004900061E08DE00E94B90360EE73E984E090E0D2
:1004A0000E94580460E08DE00E94B90360EE73E999
:1004B00084E090E00E94580461E08DE00E94B9035E
:1004C00060EE73E984E090E00E94580460E08DE003
:1004D0000E94B90360EE73E984E090E00E94580442
:1004E00061E08DE00E94B90360EE73E984E090E082
:1004F0000E94580460E08DE00E94B90360EA7BEB43
:100500008DE090E00E94580461E08DE00E94B90304
:1005100060EE73E984E090E00E94580460E08DE0B2
:100520000E94B90360EA7BEB8DE090E00E945804E2
:1005300061E08DE00E94B90360EE73E984E090E031
:100540000E94580460EC77E289E090E00E94580431
:1005500060E08DE00E94B90360EA7BEB8DE090E003
:100560000E94580461E08DE00E94B90360EE73E9D7
:1005700084E090E00E94580460E08DE00E94B9039E
:1005800060EE73E984E090E00E94580461E08DE041
:100590000E94B90360EE73E984E090E00E94580481
:1005A00060E08DE00E94B90360EE73E984E090E0C2
:1005B0000E94580461E08DE00E94B90360EE73E987
:1005C00084E090E00E94580460EC77E289E090E0DB
:1005D0000E94580460E08DE00E94B90360EE73E968
:1005E00084E090E00E94580461E08DE00E94B9032D
:1005F00060EE73E984E090E00E94580460EC77E2DA
:1006000089E090E00E94580460E08DE00E94B90308
:1006100060EA7BEB8DE090E00E94580461E08DE0A1
:100620000E94B90360EE73E984E090E00E945804F0
:1006300060E08DE00E94B90360EE73E984E090E031
:100640000E94580461E08DE00E94B90360EE73E9F6
:1006500084E090E00E94580460E08DE00E94B903BD
:1006600060EA7BEB8DE090E00E94580461E08DE051
:100670000E94B90360EE73E984E090E00E945804A0
:1006800060E08DE00E94B90360EE73E984E090E0E1
:100690000E94580461E08DE00E94B90360EE73E9A6
:1006A00084E090E00C945804833081F028F4813089
:1006B00099F08230A1F008958630A9F08730B9F022
:1006C0008430D1F4809180008F7D03C080918000C0
:1006D0008F7780938000089584B58F7702C084B5AA
:1006E0008F7D84BD08958091B0008F7703C0809185
:1006F000B0008F7D8093B0000895CF93DF9390E09A
:10070000FC01E458FF4F2491FC01E057FF4F849116
:10071000882361F190E0880F991FFC01E255FF4F9B
:10072000C591D491FC01EC55FF4FA591B491611195
:1007300009C09FB7F8948881209582238883EC9123
:100740002E230BC0623061F49FB7F8943881822F5A
:10075000809583238883EC912E2B2C939FBF06C01A
:100760008FB7F894E8812E2B28838FBFDF91CF912C
:1007700008951F93CF93DF93282F30E0F901E859B4
:10078000FF4F8491F901E458FF4FD491F901E057EC
:10079000FF4FC491CC23C9F0162F81110E9454033E
:1007A000EC2FF0E0EE0FFF1FEC55FF4FA591B49139
:1007B0008FB7F894111105C09C91ED2FE095E923B6
:1007C00002C0EC91ED2BEC938FBFDF91CF911F9185
:1007D00008951F920F920FB60F9211242F933F93FB
:1007E0008F939F93AF93BF938091010190910201EA
:1007F000A0910301B09104013091000123E0230F87
:100800002D3720F40196A11DB11D05C026E8230F48
:100810000296A11DB11D20930001809301019093C8
:100820000201A0930301B09304018091050190910E
:100830000601A0910701B09108010196A11DB11D0B
:100840008093050190930601A0930701B0930801DE
:10085000BF91AF919F918F913F912F910F900FBEBC
:100860000F901F9018953FB7F894809105019091D3
:100870000601A0910701B091080126B5A89B05C00B
:100880002F3F19F00196A11DB11D3FBFBA2FA92F0F
:10089000982F8827820F911DA11DB11DBC01CD018C
:1008A00042E0660F771F881F991F4A95D1F7089578
:1008B000CF92DF92EF92FF92CF93DF936B017C0197
:1008C0000E943304EB01C114D104E104F10479F076
:1008D0000E9433046C1B7D0B683E7340A0F381E0E3
:1008E000C81AD108E108F108C851DC4FECCFDF91FC
:1008F000CF91FF90EF90DF90CF900895789484B5DA
:10090000826084BD84B5816084BD85B5826085BD0B
:1009100085B5816085BDEEE6F0E0808181608083F1
:10092000E1E8F0E0108280818260808380818160D4
:100930008083E0E8F0E0808181608083E1EBF0E09B
:10094000808184608083E0EBF0E08081816080833F
:10095000EAE7F0E080818460808380818260808328
:100960008081816080838081806880831092C10053
:1009700008950E947E040E947000C0E0D0E00E94B2
:1009800074002097E1F30E940000F9CFF894FFCFA4
:00000001FF
